{
  "contractName": "TestUniswap",
  "abi": [
    {
      "inputs": [
        {
          "internalType": "address",
          "name": "_tokenIn",
          "type": "address"
        },
        {
          "internalType": "address",
          "name": "_tokenOut",
          "type": "address"
        },
        {
          "internalType": "uint256",
          "name": "_amountIn",
          "type": "uint256"
        },
        {
          "internalType": "uint256",
          "name": "_amountOutMin",
          "type": "uint256"
        },
        {
          "internalType": "address",
          "name": "_to",
          "type": "address"
        }
      ],
      "name": "swap",
      "outputs": [],
      "stateMutability": "nonpayable",
      "type": "function"
    },
    {
      "inputs": [
        {
          "internalType": "address",
          "name": "_tokenIn",
          "type": "address"
        },
        {
          "internalType": "address",
          "name": "_tokenOut",
          "type": "address"
        },
        {
          "internalType": "uint256",
          "name": "_amountIn",
          "type": "uint256"
        }
      ],
      "name": "getAmountOutMin",
      "outputs": [
        {
          "internalType": "uint256",
          "name": "",
          "type": "uint256"
        }
      ],
      "stateMutability": "view",
      "type": "function"
    }
  ],
  "bytecode": "0x608060405234801561001057600080fd5b50610f79806100206000396000f3fe608060405234801561001057600080fd5b5060043610610053576000357c0100000000000000000000000000000000000000000000000000000000900480633c50eec114610058578063d5bcb9b514610088575b600080fd5b610072600480360381019061006d91906109e6565b6100a4565b60405161007f9190610a48565b60405180910390f35b6100a2600480360381019061009d9190610a63565b61045f565b005b6000606073c02aaa39b223fe8d0a0e5c4f27ead9083c756cc273ffffffffffffffffffffffffffffffffffffffff168573ffffffffffffffffffffffffffffffffffffffff161480610135575073c02aaa39b223fe8d0a0e5c4f27ead9083c756cc273ffffffffffffffffffffffffffffffffffffffff168473ffffffffffffffffffffffffffffffffffffffff16145b1561022957600267ffffffffffffffff81111561015557610154610ade565b5b6040519080825280602002602001820160405280156101835781602001602082028036833780820191505090505b509050848160008151811061019b5761019a610b0d565b5b602002602001019073ffffffffffffffffffffffffffffffffffffffff16908173ffffffffffffffffffffffffffffffffffffffff168152505083816001815181106101ea576101e9610b0d565b5b602002602001019073ffffffffffffffffffffffffffffffffffffffff16908173ffffffffffffffffffffffffffffffffffffffff1681525050610377565b600367ffffffffffffffff81111561024457610243610ade565b5b6040519080825280602002602001820160405280156102725781602001602082028036833780820191505090505b509050848160008151811061028a57610289610b0d565b5b602002602001019073ffffffffffffffffffffffffffffffffffffffff16908173ffffffffffffffffffffffffffffffffffffffff168152505073c02aaa39b223fe8d0a0e5c4f27ead9083c756cc2816001815181106102ed576102ec610b0d565b5b602002602001019073ffffffffffffffffffffffffffffffffffffffff16908173ffffffffffffffffffffffffffffffffffffffff1681525050838160028151811061033c5761033b610b0d565b5b602002602001019073ffffffffffffffffffffffffffffffffffffffff16908173ffffffffffffffffffffffffffffffffffffffff16815250505b6000737a250d5630b4cf539739df2c5dacb4c659f2488d73ffffffffffffffffffffffffffffffffffffffff1663d06ca61f85846040518363ffffffff167c01000000000000000000000000000000000000000000000000000000000281526004016103e4929190610bfa565b600060405180830381865afa158015610401573d6000803e3d6000fd5b505050506040513d6000823e3d601f19601f8201168201806040525081019061042a9190610d69565b9050806001835161043b9190610de1565b8151811061044c5761044b610b0d565b5b6020026020010151925050509392505050565b8473ffffffffffffffffffffffffffffffffffffffff166323b872dd3330866040518463ffffffff167c01000000000000000000000000000000000000000000000000000000000281526004016104b893929190610e24565b6020604051808303816000875af11580156104d7573d6000803e3d6000fd5b505050506040513d601f19601f820116820180604052508101906104fb9190610e93565b508473ffffffffffffffffffffffffffffffffffffffff1663095ea7b3737a250d5630b4cf539739df2c5dacb4c659f2488d856040518363ffffffff167c0100000000000000000000000000000000000000000000000000000000028152600401610567929190610ec0565b6020604051808303816000875af1158015610586573d6000803e3d6000fd5b505050506040513d601f19601f820116820180604052508101906105aa9190610e93565b50606073c02aaa39b223fe8d0a0e5c4f27ead9083c756cc273ffffffffffffffffffffffffffffffffffffffff168673ffffffffffffffffffffffffffffffffffffffff16148061063a575073c02aaa39b223fe8d0a0e5c4f27ead9083c756cc273ffffffffffffffffffffffffffffffffffffffff168573ffffffffffffffffffffffffffffffffffffffff16145b1561072e57600267ffffffffffffffff81111561065a57610659610ade565b5b6040519080825280602002602001820160405280156106885781602001602082028036833780820191505090505b50905085816000815181106106a05761069f610b0d565b5b602002602001019073ffffffffffffffffffffffffffffffffffffffff16908173ffffffffffffffffffffffffffffffffffffffff168152505084816001815181106106ef576106ee610b0d565b5b602002602001019073ffffffffffffffffffffffffffffffffffffffff16908173ffffffffffffffffffffffffffffffffffffffff168152505061087c565b600367ffffffffffffffff81111561074957610748610ade565b5b6040519080825280602002602001820160405280156107775781602001602082028036833780820191505090505b509050858160008151811061078f5761078e610b0d565b5b602002602001019073ffffffffffffffffffffffffffffffffffffffff16908173ffffffffffffffffffffffffffffffffffffffff168152505073c02aaa39b223fe8d0a0e5c4f27ead9083c756cc2816001815181106107f2576107f1610b0d565b5b602002602001019073ffffffffffffffffffffffffffffffffffffffff16908173ffffffffffffffffffffffffffffffffffffffff1681525050848160028151811061084157610840610b0d565b5b602002602001019073ffffffffffffffffffffffffffffffffffffffff16908173ffffffffffffffffffffffffffffffffffffffff16815250505b737a250d5630b4cf539739df2c5dacb4c659f2488d73ffffffffffffffffffffffffffffffffffffffff166338ed173985858486426040518663ffffffff167c01000000000000000000000000000000000000000000000000000000000281526004016108ed959493929190610ee9565b6000604051808303816000875af115801561090c573d6000803e3d6000fd5b505050506040513d6000823e3d601f19601f820116820180604052508101906109359190610d69565b50505050505050565b6000604051905090565b600080fd5b600080fd5b600073ffffffffffffffffffffffffffffffffffffffff82169050919050565b600061097d82610952565b9050919050565b61098d81610972565b811461099857600080fd5b50565b6000813590506109aa81610984565b92915050565b6000819050919050565b6109c3816109b0565b81146109ce57600080fd5b50565b6000813590506109e0816109ba565b92915050565b6000806000606084860312156109ff576109fe610948565b5b6000610a0d8682870161099b565b9350506020610a1e8682870161099b565b9250506040610a2f868287016109d1565b9150509250925092565b610a42816109b0565b82525050565b6000602082019050610a5d6000830184610a39565b92915050565b600080600080600060a08688031215610a7f57610a7e610948565b5b6000610a8d8882890161099b565b9550506020610a9e8882890161099b565b9450506040610aaf888289016109d1565b9350506060610ac0888289016109d1565b9250506080610ad18882890161099b565b9150509295509295909350565b7f4e487b7100000000000000000000000000000000000000000000000000000000600052604160045260246000fd5b7f4e487b7100000000000000000000000000000000000000000000000000000000600052603260045260246000fd5b600081519050919050565b600082825260208201905092915050565b6000819050602082019050919050565b610b7181610972565b82525050565b6000610b838383610b68565b60208301905092915050565b6000602082019050919050565b6000610ba782610b3c565b610bb18185610b47565b9350610bbc83610b58565b8060005b83811015610bed578151610bd48882610b77565b9750610bdf83610b8f565b925050600181019050610bc0565b5085935050505092915050565b6000604082019050610c0f6000830185610a39565b8181036020830152610c218184610b9c565b90509392505050565b600080fd5b6000601f19601f8301169050919050565b610c4982610c2f565b810181811067ffffffffffffffff82111715610c6857610c67610ade565b5b80604052505050565b6000610c7b61093e565b9050610c878282610c40565b919050565b600067ffffffffffffffff821115610ca757610ca6610ade565b5b602082029050602081019050919050565b600080fd5b600081519050610ccc816109ba565b92915050565b6000610ce5610ce084610c8c565b610c71565b90508083825260208201905060208402830185811115610d0857610d07610cb8565b5b835b81811015610d315780610d1d8882610cbd565b845260208401935050602081019050610d0a565b5050509392505050565b600082601f830112610d5057610d4f610c2a565b5b8151610d60848260208601610cd2565b91505092915050565b600060208284031215610d7f57610d7e610948565b5b600082015167ffffffffffffffff811115610d9d57610d9c61094d565b5b610da984828501610d3b565b91505092915050565b7f4e487b7100000000000000000000000000000000000000000000000000000000600052601160045260246000fd5b6000610dec826109b0565b9150610df7836109b0565b925082821015610e0a57610e09610db2565b5b828203905092915050565b610e1e81610972565b82525050565b6000606082019050610e396000830186610e15565b610e466020830185610e15565b610e536040830184610a39565b949350505050565b60008115159050919050565b610e7081610e5b565b8114610e7b57600080fd5b50565b600081519050610e8d81610e67565b92915050565b600060208284031215610ea957610ea8610948565b5b6000610eb784828501610e7e565b91505092915050565b6000604082019050610ed56000830185610e15565b610ee26020830184610a39565b9392505050565b600060a082019050610efe6000830188610a39565b610f0b6020830187610a39565b8181036040830152610f1d8186610b9c565b9050610f2c6060830185610e15565b610f396080830184610a39565b969550505050505056fea26469706673582212204e2148bb4d39943519d871fe9c929003f7c845538f59cd3811fe06e459ec635464736f6c634300080a0033",
  "immutableReferences": {},
  "source": "pragma solidity >0.7.0;\n\n\n//import the ERC20 interface\n\ninterface IERC20 {\n    function totalSupply() external view returns (uint);\n    function balanceOf(address account) external view returns (uint);\n    function transfer(address recipient, uint amount) external returns (bool);\n    function allowance(address owner, address spender) external view returns (uint);\n    function approve(address spender, uint amount) external returns (bool);\n    function transferFrom(\n        address sender,\n        address recipient,\n        uint amount\n    ) external returns (bool);\n    event Transfer(address indexed from, address indexed to, uint value);\n    event Approval(address indexed owner, address indexed spender, uint value);\n}\n\n\n//import the uniswap router\n//the contract needs to use swapExactTokensForTokens\n//this will allow us to import swapExactTokensForTokens into our contract\n\ninterface IUniswapV2Router {\n  function getAmountsOut(uint256 amountIn, address[] memory path)\n    external\n    view\n    returns (uint256[] memory amounts);\n  \n  function swapExactTokensForTokens(\n  \n    //amount of tokens we are sending in\n    uint256 amountIn,\n    //the minimum amount of tokens we want out of the trade\n    uint256 amountOutMin,\n    //list of token addresses we are going to trade in.  this is necessary to calculate amounts\n    address[] calldata path,\n    //this is the address we are going to send the output tokens to\n    address to,\n    //the last time that the trade is valid for\n    uint256 deadline\n  ) external returns (uint256[] memory amounts);\n  function factory() external pure returns (address);\n}\n\ninterface IUniswapV2Pair {\n  function token0() external view returns (address);\n  function token1() external view returns (address);\n  function swap(\n    uint256 amount0Out,\n    uint256 amount1Out,\n    address to,\n    bytes calldata data\n  ) external;\n  function kLast() external view returns (uint);\n  function getReserves() external view returns (uint112 reserve0, uint112 reserve1, uint32 blockTimestampLast);\n}\n\ninterface IUniswapV2Factory {\n  function getPair(address token0, address token1) external returns (address);\n  function createPair(address tokenA, address tokenB) external returns (address pair);\n}\n\ncontract TestUniswap {\n  address private constant UNISWAP_V2_ROUTER =\n    0x7a250d5630B4cF539739dF2C5dAcb4c659F2488D;\n  address private constant WETH = 0xC02aaA39b223FE8D0A0e5C4F27eAD9083C756Cc2;\n\n  function swap(\n    address _tokenIn,\n    address _tokenOut,\n    uint _amountIn,\n    uint _amountOutMin,\n    address _to\n  ) external {\n    IERC20(_tokenIn).transferFrom(msg.sender, address(this), _amountIn);\n    IERC20(_tokenIn).approve(UNISWAP_V2_ROUTER, _amountIn);\n\n    address[] memory path;\n    if (_tokenIn == WETH || _tokenOut == WETH) {\n      path = new address[](2);\n      path[0] = _tokenIn;\n      path[1] = _tokenOut;\n    } else {\n      path = new address[](3);\n      path[0] = _tokenIn;\n      path[1] = WETH;\n      path[2] = _tokenOut;\n    }\n\n    IUniswapV2Router(UNISWAP_V2_ROUTER).swapExactTokensForTokens(\n      _amountIn,\n      _amountOutMin,\n      path,\n      _to,\n      block.timestamp\n    );\n  }\n\n  function getAmountOutMin(\n    address _tokenIn,\n    address _tokenOut,\n    uint _amountIn\n  ) external view returns (uint) {\n    address[] memory path;\n    if (_tokenIn == WETH || _tokenOut == WETH) {\n      path = new address[](2);\n      path[0] = _tokenIn;\n      path[1] = _tokenOut;\n    } else {\n      path = new address[](3);\n      path[0] = _tokenIn;\n      path[1] = WETH;\n      path[2] = _tokenOut;\n    }\n\n    // same length as path\n    uint[] memory amountOutMins =\n      IUniswapV2Router(UNISWAP_V2_ROUTER).getAmountsOut(_amountIn, path);\n\n    return amountOutMins[path.length - 1];\n  }\n}",
  "sourcePath": "/home/rdkgpian/Desktop/UniswapProj/contracts/TokenSwap.sol",
  "compiler": {
    "name": "solc",
    "version": "0.8.10+commit.fc410830.Emscripten.clang"
  },
  "schemaVersion": "3.4.3",
  "updatedAt": "2022-04-04T14:38:00.318Z",
  "devdoc": {
    "kind": "dev",
    "methods": {},
    "version": 1
  },
  "userdoc": {
    "kind": "user",
    "methods": {},
    "version": 1
  }
}