{
  "contractName": "TokenSwap",
  "abi": [
    {
      "inputs": [],
      "name": "setFactoryAddress",
      "outputs": [
        {
          "internalType": "address",
          "name": "",
          "type": "address"
        }
      ],
      "stateMutability": "nonpayable",
      "type": "function"
    },
    {
      "inputs": [
        {
          "internalType": "address",
          "name": "_tokenA",
          "type": "address"
        },
        {
          "internalType": "address",
          "name": "_tokenB",
          "type": "address"
        }
      ],
      "name": "getPairAddress",
      "outputs": [
        {
          "internalType": "address",
          "name": "",
          "type": "address"
        }
      ],
      "stateMutability": "nonpayable",
      "type": "function"
    },
    {
      "inputs": [],
      "name": "getReserves",
      "outputs": [
        {
          "internalType": "uint112",
          "name": "",
          "type": "uint112"
        },
        {
          "internalType": "uint112",
          "name": "",
          "type": "uint112"
        }
      ],
      "stateMutability": "view",
      "type": "function"
    },
    {
      "inputs": [],
      "name": "getK",
      "outputs": [
        {
          "internalType": "uint256",
          "name": "",
          "type": "uint256"
        }
      ],
      "stateMutability": "view",
      "type": "function"
    },
    {
      "inputs": [
        {
          "internalType": "address",
          "name": "_tokenA",
          "type": "address"
        },
        {
          "internalType": "address",
          "name": "_tokenB",
          "type": "address"
        },
        {
          "internalType": "uint256",
          "name": "_amountIn",
          "type": "uint256"
        },
        {
          "internalType": "uint256",
          "name": "_amountOutMin",
          "type": "uint256"
        },
        {
          "internalType": "address",
          "name": "_to",
          "type": "address"
        }
      ],
      "name": "swap",
      "outputs": [],
      "stateMutability": "nonpayable",
      "type": "function"
    },
    {
      "inputs": [
        {
          "internalType": "address",
          "name": "_tokenA",
          "type": "address"
        },
        {
          "internalType": "address",
          "name": "_tokenB",
          "type": "address"
        },
        {
          "internalType": "uint256",
          "name": "_amountIn",
          "type": "uint256"
        }
      ],
      "name": "getAmountOutMin",
      "outputs": [
        {
          "internalType": "uint256",
          "name": "",
          "type": "uint256"
        }
      ],
      "stateMutability": "view",
      "type": "function"
    }
  ],
  "bytecode": "0x608060405234801561001057600080fd5b50611650806100206000396000f3fe608060405234801561001057600080fd5b506004361061007f576000357c0100000000000000000000000000000000000000000000000000000000900480630902f1ac146100845780633c50eec1146100a3578063b4f69a2f146100d3578063d5bcb9b514610103578063ee39e7a01461011f578063f260e2a31461013d575b600080fd5b61008c61015b565b60405161009a929190610d55565b60405180910390f35b6100bd60048036038101906100b89190610e26565b6102b1565b6040516100ca9190610e88565b60405180910390f35b6100ed60048036038101906100e89190610ea3565b6104ea565b6040516100fa9190610ef2565b60405180910390f35b61011d60048036038101906101189190610f0d565b610764565b005b610127610a5e565b6040516101349190610e88565b60405180910390f35b610145610ba3565b6040516101529190610ef2565b60405180910390f35b600080600073ffffffffffffffffffffffffffffffffffffffff16600160009054906101000a900473ffffffffffffffffffffffffffffffffffffffff1673ffffffffffffffffffffffffffffffffffffffff1614156101f0576040517f08c379a00000000000000000000000000000000000000000000000000000000081526004016101e790610fe5565b60405180910390fd5b600080600160009054906101000a900473ffffffffffffffffffffffffffffffffffffffff1673ffffffffffffffffffffffffffffffffffffffff16630902f1ac6040518163ffffffff167c0100000000000000000000000000000000000000000000000000000000028152600401606060405180830381865afa15801561027c573d6000803e3d6000fd5b505050506040513d601f19601f820116820180604052508101906102a0919061106d565b509150915081819350935050509091565b60006060600367ffffffffffffffff8111156102d0576102cf6110c0565b5b6040519080825280602002602001820160405280156102fe5781602001602082028036833780820191505090505b5090508481600081518110610316576103156110ef565b5b602002602001019073ffffffffffffffffffffffffffffffffffffffff16908173ffffffffffffffffffffffffffffffffffffffff168152505073c02aaa39b223fe8d0a0e5c4f27ead9083c756cc281600181518110610379576103786110ef565b5b602002602001019073ffffffffffffffffffffffffffffffffffffffff16908173ffffffffffffffffffffffffffffffffffffffff168152505083816002815181106103c8576103c76110ef565b5b602002602001019073ffffffffffffffffffffffffffffffffffffffff16908173ffffffffffffffffffffffffffffffffffffffff16815250506000737a250d5630b4cf539739df2c5dacb4c659f2488d73ffffffffffffffffffffffffffffffffffffffff1663d06ca61f85846040518363ffffffff167c010000000000000000000000000000000000000000000000000000000002815260040161046f9291906111dc565b600060405180830381865afa15801561048c573d6000803e3d6000fd5b505050506040513d6000823e3d601f19601f820116820180604052508101906104b5919061134b565b905080600183516104c691906113c3565b815181106104d7576104d66110ef565b5b6020026020010151925050509392505050565b60008060009054906101000a900473ffffffffffffffffffffffffffffffffffffffff1673ffffffffffffffffffffffffffffffffffffffff1663e6a4390584846040518363ffffffff167c01000000000000000000000000000000000000000000000000000000000281526004016105649291906113f7565b6020604051808303816000875af1158015610583573d6000803e3d6000fd5b505050506040513d601f19601f820116820180604052508101906105a79190611435565b600160006101000a81548173ffffffffffffffffffffffffffffffffffffffff021916908373ffffffffffffffffffffffffffffffffffffffff160217905550600073ffffffffffffffffffffffffffffffffffffffff16600160009054906101000a900473ffffffffffffffffffffffffffffffffffffffff1673ffffffffffffffffffffffffffffffffffffffff1614156107395760008054906101000a900473ffffffffffffffffffffffffffffffffffffffff1673ffffffffffffffffffffffffffffffffffffffff1663c9c6539684846040518363ffffffff167c01000000000000000000000000000000000000000000000000000000000281526004016106b59291906113f7565b6020604051808303816000875af11580156106d4573d6000803e3d6000fd5b505050506040513d601f19601f820116820180604052508101906106f89190611435565b600160006101000a81548173ffffffffffffffffffffffffffffffffffffffff021916908373ffffffffffffffffffffffffffffffffffffffff1602179055505b600160009054906101000a900473ffffffffffffffffffffffffffffffffffffffff16905092915050565b8473ffffffffffffffffffffffffffffffffffffffff166323b872dd3330866040518463ffffffff167c01000000000000000000000000000000000000000000000000000000000281526004016107bd93929190611462565b6020604051808303816000875af11580156107dc573d6000803e3d6000fd5b505050506040513d601f19601f8201168201806040525081019061080091906114d1565b508473ffffffffffffffffffffffffffffffffffffffff1663095ea7b3737a250d5630b4cf539739df2c5dacb4c659f2488d856040518363ffffffff167c010000000000000000000000000000000000000000000000000000000002815260040161086c9291906114fe565b6020604051808303816000875af115801561088b573d6000803e3d6000fd5b505050506040513d601f19601f820116820180604052508101906108af91906114d1565b506060600267ffffffffffffffff8111156108cd576108cc6110c0565b5b6040519080825280602002602001820160405280156108fb5781602001602082028036833780820191505090505b5090508581600081518110610913576109126110ef565b5b602002602001019073ffffffffffffffffffffffffffffffffffffffff16908173ffffffffffffffffffffffffffffffffffffffff16815250508481600181518110610962576109616110ef565b5b602002602001019073ffffffffffffffffffffffffffffffffffffffff16908173ffffffffffffffffffffffffffffffffffffffff1681525050737a250d5630b4cf539739df2c5dacb4c659f2488d73ffffffffffffffffffffffffffffffffffffffff166338ed173985858486426040518663ffffffff167c0100000000000000000000000000000000000000000000000000000000028152600401610a0d959493929190611527565b6000604051808303816000875af1158015610a2c573d6000803e3d6000fd5b505050506040513d6000823e3d601f19601f82011682018060405250810190610a55919061134b565b50505050505050565b60008073ffffffffffffffffffffffffffffffffffffffff16600160009054906101000a900473ffffffffffffffffffffffffffffffffffffffff1673ffffffffffffffffffffffffffffffffffffffff161415610af1576040517f08c379a0000000000000000000000000000000000000000000000000000000008152600401610ae890610fe5565b60405180910390fd5b600160009054906101000a900473ffffffffffffffffffffffffffffffffffffffff1673ffffffffffffffffffffffffffffffffffffffff16637464fc3d6040518163ffffffff167c0100000000000000000000000000000000000000000000000000000000028152600401602060405180830381865afa158015610b7a573d6000803e3d6000fd5b505050506040513d601f19601f82011682018060405250810190610b9e9190611581565b905090565b60008073ffffffffffffffffffffffffffffffffffffffff16737a250d5630b4cf539739df2c5dacb4c659f2488d73ffffffffffffffffffffffffffffffffffffffff161415610c28576040517f08c379a0000000000000000000000000000000000000000000000000000000008152600401610c1f906115fa565b60405180910390fd5b737a250d5630b4cf539739df2c5dacb4c659f2488d73ffffffffffffffffffffffffffffffffffffffff1663c45a01556040518163ffffffff167c0100000000000000000000000000000000000000000000000000000000028152600401602060405180830381865afa158015610ca3573d6000803e3d6000fd5b505050506040513d601f19601f82011682018060405250810190610cc79190611435565b6000806101000a81548173ffffffffffffffffffffffffffffffffffffffff021916908373ffffffffffffffffffffffffffffffffffffffff16021790555060008054906101000a900473ffffffffffffffffffffffffffffffffffffffff16905090565b60006dffffffffffffffffffffffffffff82169050919050565b610d4f81610d2c565b82525050565b6000604082019050610d6a6000830185610d46565b610d776020830184610d46565b9392505050565b6000604051905090565b600080fd5b600080fd5b600073ffffffffffffffffffffffffffffffffffffffff82169050919050565b6000610dbd82610d92565b9050919050565b610dcd81610db2565b8114610dd857600080fd5b50565b600081359050610dea81610dc4565b92915050565b6000819050919050565b610e0381610df0565b8114610e0e57600080fd5b50565b600081359050610e2081610dfa565b92915050565b600080600060608486031215610e3f57610e3e610d88565b5b6000610e4d86828701610ddb565b9350506020610e5e86828701610ddb565b9250506040610e6f86828701610e11565b9150509250925092565b610e8281610df0565b82525050565b6000602082019050610e9d6000830184610e79565b92915050565b60008060408385031215610eba57610eb9610d88565b5b6000610ec885828601610ddb565b9250506020610ed985828601610ddb565b9150509250929050565b610eec81610db2565b82525050565b6000602082019050610f076000830184610ee3565b92915050565b600080600080600060a08688031215610f2957610f28610d88565b5b6000610f3788828901610ddb565b9550506020610f4888828901610ddb565b9450506040610f5988828901610e11565b9350506060610f6a88828901610e11565b9250506080610f7b88828901610ddb565b9150509295509295909350565b600082825260208201905092915050565b7f4372656174652050616972206669727374000000000000000000000000000000600082015250565b6000610fcf601183610f88565b9150610fda82610f99565b602082019050919050565b60006020820190508181036000830152610ffe81610fc2565b9050919050565b61100e81610d2c565b811461101957600080fd5b50565b60008151905061102b81611005565b92915050565b600063ffffffff82169050919050565b61104a81611031565b811461105557600080fd5b50565b60008151905061106781611041565b92915050565b60008060006060848603121561108657611085610d88565b5b60006110948682870161101c565b93505060206110a58682870161101c565b92505060406110b686828701611058565b9150509250925092565b7f4e487b7100000000000000000000000000000000000000000000000000000000600052604160045260246000fd5b7f4e487b7100000000000000000000000000000000000000000000000000000000600052603260045260246000fd5b600081519050919050565b600082825260208201905092915050565b6000819050602082019050919050565b61115381610db2565b82525050565b6000611165838361114a565b60208301905092915050565b6000602082019050919050565b60006111898261111e565b6111938185611129565b935061119e8361113a565b8060005b838110156111cf5781516111b68882611159565b97506111c183611171565b9250506001810190506111a2565b5085935050505092915050565b60006040820190506111f16000830185610e79565b8181036020830152611203818461117e565b90509392505050565b600080fd5b6000601f19601f8301169050919050565b61122b82611211565b810181811067ffffffffffffffff8211171561124a576112496110c0565b5b80604052505050565b600061125d610d7e565b90506112698282611222565b919050565b600067ffffffffffffffff821115611289576112886110c0565b5b602082029050602081019050919050565b600080fd5b6000815190506112ae81610dfa565b92915050565b60006112c76112c28461126e565b611253565b905080838252602082019050602084028301858111156112ea576112e961129a565b5b835b8181101561131357806112ff888261129f565b8452602084019350506020810190506112ec565b5050509392505050565b600082601f8301126113325761133161120c565b5b81516113428482602086016112b4565b91505092915050565b60006020828403121561136157611360610d88565b5b600082015167ffffffffffffffff81111561137f5761137e610d8d565b5b61138b8482850161131d565b91505092915050565b7f4e487b7100000000000000000000000000000000000000000000000000000000600052601160045260246000fd5b60006113ce82610df0565b91506113d983610df0565b9250828210156113ec576113eb611394565b5b828203905092915050565b600060408201905061140c6000830185610ee3565b6114196020830184610ee3565b9392505050565b60008151905061142f81610dc4565b92915050565b60006020828403121561144b5761144a610d88565b5b600061145984828501611420565b91505092915050565b60006060820190506114776000830186610ee3565b6114846020830185610ee3565b6114916040830184610e79565b949350505050565b60008115159050919050565b6114ae81611499565b81146114b957600080fd5b50565b6000815190506114cb816114a5565b92915050565b6000602082840312156114e7576114e6610d88565b5b60006114f5848285016114bc565b91505092915050565b60006040820190506115136000830185610ee3565b6115206020830184610e79565b9392505050565b600060a08201905061153c6000830188610e79565b6115496020830187610e79565b818103604083015261155b818661117e565b905061156a6060830185610ee3565b6115776080830184610e79565b9695505050505050565b60006020828403121561159757611596610d88565b5b60006115a58482850161129f565b91505092915050565b7f53657420526f7574657220616464726573732066697273740000000000000000600082015250565b60006115e4601883610f88565b91506115ef826115ae565b602082019050919050565b60006020820190508181036000830152611613816115d7565b905091905056fea264697066735822122014acd897671ca9ba005bd0ebc6aab1f689f9f5490f0e4eaba01ed9e859479bc864736f6c634300080a0033",
  "immutableReferences": {},
  "source": "pragma solidity >0.7.0;\n\n\n//import the ERC20 interface\n\ninterface IERC20 {\n    function totalSupply() external view returns (uint);\n    function balanceOf(address account) external view returns (uint);\n    function transfer(address recipient, uint amount) external returns (bool);\n    function allowance(address owner, address spender) external view returns (uint);\n    function approve(address spender, uint amount) external returns (bool);\n    function transferFrom(\n        address sender,\n        address recipient,\n        uint amount\n    ) external returns (bool);\n    event Transfer(address indexed from, address indexed to, uint value);\n    event Approval(address indexed owner, address indexed spender, uint value);\n}\n\n\n//import the uniswap router\n//the contract needs to use swapExactTokensForTokens\n//this will allow us to import swapExactTokensForTokens into our contract\n\ninterface IUniswapV2Router {\n  function getAmountsOut(uint256 amountIn, address[] memory path)\n    external\n    view\n    returns (uint256[] memory amounts);\n  \n  function swapExactTokensForTokens(\n  \n    //amount of tokens we are sending in\n    uint256 amountIn,\n    //the minimum amount of tokens we want out of the trade\n    uint256 amountOutMin,\n    //list of token addresses we are going to trade in.  this is necessary to calculate amounts\n    address[] calldata path,\n    //this is the address we are going to send the output tokens to\n    address to,\n    //the last time that the trade is valid for\n    uint256 deadline\n  ) external returns (uint256[] memory amounts);\n  function factory() external pure returns (address);\n}\n\ninterface IUniswapV2Pair {\n  function token0() external view returns (address);\n  function token1() external view returns (address);\n  function swap(\n    uint256 amount0Out,\n    uint256 amount1Out,\n    address to,\n    bytes calldata data\n  ) external;\n  function kLast() external view returns (uint);\n  function getReserves() external view returns (uint112 reserve0, uint112 reserve1, uint32 blockTimestampLast);\n}\n\ninterface IUniswapV2Factory {\n  function getPair(address token0, address token1) external returns (address);\n  function createPair(address tokenA, address tokenB) external returns (address pair);\n}\n\ncontract TokenSwap {\n    \n    address private constant UniswapRouter = 0x7a250d5630B4cF539739dF2C5dAcb4c659F2488D;\n    //address private tokenIn;\n    //address private tokenOut;\n    //address private constant UniswapFactory = 0x5C69bEe701ef814a2B6a3EDD4B1652CB9cc5aA6f;\n    address private  UniswapFactory;\n    address private UniswapPair;\n      address private constant WETH = 0xC02aaA39b223FE8D0A0e5C4F27eAD9083C756Cc2;\n\n\n    function setFactoryAddress() external returns(address){\n\n        require(UniswapRouter!=address(0), \"Set Router address first\");\n        UniswapFactory = IUniswapV2Router(UniswapRouter).factory();\n        return UniswapFactory;\n    }\n\n    function getPairAddress(address _tokenA, address _tokenB) external returns(address) {\n\n        UniswapPair = IUniswapV2Factory(UniswapFactory).getPair(_tokenA, _tokenB);\n        if(UniswapPair == address(0)) {\n            UniswapPair = IUniswapV2Factory(UniswapFactory).createPair(_tokenA, _tokenB);\n        }\n\n        return UniswapPair;\n    }\n    /*function setTokenInAddress(address _tokenIn) external {\n        tokenIn= _tokenIn;\n    }\n\n    function setTokenOutAddress(address _tokenOut) external {\n        tokenOut = _tokenOut;\n    }*/\n    function getReserves() external view returns (uint112, uint112) {\n\n        require(UniswapPair!= address(0), \"Create Pair first\");\n        (uint112 _reserve0, uint112 _reserve1, ) = IUniswapV2Pair(UniswapPair).getReserves();\n\n        return (_reserve0, _reserve1);\n    }\n\n    function getK() external view returns (uint) {\n\n        require(UniswapPair!= address(0), \"Create Pair first\");\n        return IUniswapV2Pair(UniswapPair).kLast();\n    }\n\n    function swap(address _tokenA, address _tokenB, uint256 _amountIn, uint256 _amountOutMin, address _to) external {\n      \n    //first we need to transfer the amount in tokens from the msg.sender to this contract\n    //this contract will have the amount of in tokens\n    IERC20(_tokenA).transferFrom(msg.sender, address(this), _amountIn);\n    \n    //next we need to allow the uniswapv2 router to spend the token we just sent to this contract\n    //by calling IERC20 approve you allow the uniswap contract to spend the tokens in this contract \n    IERC20(_tokenA).approve(UniswapRouter, _amountIn);\n\n    //path is an array of addresses.\n    //this path array will have 3 addresses [tokenIn, WETH, tokenOut]\n    //the if statement below takes into account if token in or token out is WETH.  then the path is only 2 addresses\n    address[] memory path;\n    path = new address[](2);\n    path[0] = _tokenA;\n    path[1] = _tokenB;\n    \n        //then we will call swapExactTokensForTokens\n        //for the deadline we will pass in block.timestamp\n        //the deadline is the latest time the trade is valid for\n    IUniswapV2Router(UniswapRouter).swapExactTokensForTokens(_amountIn, _amountOutMin, path, _to, block.timestamp);\n    }\n\n    function getAmountOutMin(address _tokenA, address _tokenB, uint256 _amountIn) external view returns (uint256) {\n\n       //path is an array of addresses.\n       //this path array will have 3 addresses [tokenIn, WETH, tokenOut]\n       //the if statement below takes into account if token in or token out is WETH.  then the path is only 2 addresses\n        address[] memory path;\n        path = new address[](3);\n        path[0] = _tokenA;\n        path[1] = WETH;\n        path[2] = _tokenB;\n     \n        uint256[] memory amountOutMins = IUniswapV2Router(UniswapRouter).getAmountsOut(_amountIn, path);\n        return amountOutMins[path.length -1];  \n    }  \n\n\n}\n\n\n",
  "sourcePath": "/home/rdkgpian/Desktop/UniswapProj/contracts/TokenSwap.sol",
  "compiler": {
    "name": "solc",
    "version": "0.8.10+commit.fc410830.Emscripten.clang"
  },
  "schemaVersion": "3.4.3",
  "updatedAt": "2022-04-06T06:44:21.901Z",
  "devdoc": {
    "kind": "dev",
    "methods": {},
    "version": 1
  },
  "userdoc": {
    "kind": "user",
    "methods": {},
    "version": 1
  }
}